:0817AA007F147E02DEFEDFFA6F
:0117B2002214
:1016B900E4FEC293EF339291EF25E0FFD2930EBE81
:1016C90008F0E4FEC293ED339291ED25E0FDD2934B
:0816D9000EBE08F0D292C2928D
:0116E10022E6
:1016E200E4FEC2B7EF3392B4EF25E0FFD2B70EBEED
:1016F20008F0E4FEC2B7ED3392B4ED25E0FDD2B7B7
:081702000EBE08F0D2B6C2B61B
:01170A0022BC
:0717B300C2C0C2C4C2C7227C
:0717BA00D2C0D2C4D2C72245
:0A176700C111C10FC110025100B3FF
:10170B00758ED5758901758A71758CDD758B337501
:0B171B008DF5D28ED28CD2A9D2AB2269
:03000B000214A13B
:1014A100C0E0C0D075D008C28CD211C3E49556FDFE
:1014B100E49555F58CAF0D8F8A0552E55270020502
:1014C10051C374B49559FFE49558FEE5522FF55B6D
:1014D100E5513EF55AD3E55B94B4E55A9400400CCE
:1014E100E5529559F55BE5519558F55AD28CD0D016
:0314F100D0E03216
:03001B0002123698
:04123600C0E0C0D084
:10123A00055EE55E7002055D054B0560E5607002BE
:10124A00055F0564E564700205630566E56670027C
:10125A000565E5606402455F7006F55FF560D213C7
:10126A00E564B4580DE563B402087563007564005B
:10127A00D20FE566B45824E565B4021F756500759A
:10128A006600D2120559E55970020558D394B3E5A0
:10129A005894004006755800755900E55E64407020
:1012AA0004E55D641F704DF55DF55E854C5CF54C9B
:1012BA00054A0562E56270020561640345617016BC
:1012CA00F561F5620557D3E55794CF74809482404F
:1012DA0003755700B2C5E54AB43C19754A00054D75
:1012EA00E54DB43C0F754D000554E554D3940B40BD
:0412FA000375540024
:0512FE00D0D0D0E03269
:10115900E51A25E025E02420F582E43400F583E44E
:1011690093F576740193F577E51A25E025E0241EB9
:10117900F582E43400F583E493F570740193F57115
:10118900201303021235C213200F03021235AF6C6C
:10119900AE6B12172675F004E51CA42468F582E5E8
:1011A900F03401F583EFF0E56C2401FFE4356BFEC3
:1011B90012172675F004E51CA42469F582E5F034BC
:1011C90001F583EFF0E56C2402FFE4356BFE12179D
:1011D9002675F004E51CA4246AF582E5F03401F5CE
:1011E90083EFF0E56C2403FFE4356BFE12172675D7
:1011F900F004E51CA4246BF582E5F03401F583EFD6
:10120900F0051C7404256CF56CE4356BF56BE51C75
:10121900D394B34007E4F51CC20FC214E56CB5774B
:0C1229000BE56BB5760685706B85716C6B
:011235002296
:101303001217BA7580FF75A0FF121159201103023D
:1013130013BFC2112018030213BFE55214FFD39465
:10132300B440030213BF75F004EFA42468F582E50B
:10133300F03401F583E0F4F56E75F004EFA424694D
:10134300F582E5F03401F583E0F4F56F75F004EF11
:10135300A4246AF582E5F03401F583E0F4F57275AF
:10136300F004EFA4246BF582E5F03401F583E0F497
:10137300F573E55B25E0FFE55A33FE74002FF58234
:1013830074003EF583E0F57474012FF58274003E1A
:10139300F583E0F575C294C2C5AD6FAF6E1216B991
:1013A300AD75AF741216E28572A08573801217B300
:0C13B3001217AA1217BA75A0FF7580FF70
:0113BF00220B
:10001E0000001680168024902490519051906DB05F
:10002E00FFFFFFFFFFFFFFFFFFFFFFFFFFFFFFFFD2
:10003E00FFFFFFFFFFFFFFFFFFFFFFFFFFFFFFFFC2
:10004E00FFFFFFFFFFF7F7FFFFC7E3FFFF07E0FF2D
:10005E00FF0FE0FFFF0FE0FFFF0FE0FFFF8FC0FF7E
:10006E009F8FC1FF1F0FC3FF1F0CC7FF1F1086FFFF
:10007E009F3004FF9F230CFF8F420CFF8F8C08FFD5
:10008E008F8809FE8F1007FE9F1007FE1F21C6FEE8
:10009E003F23E2FF7F02E2FFFF07F0FFFF47F0FF83
:1000AE00FF4FF8FFFF0FF8FFFF0FFCFFFF8FFEFF64
:1000BE00FF8FFFFFFF8FFFFFFF8FFFFFFF9FFFFFF2
:1000CE00FF9FFFFFFF9FFFFFFFFFFFFFFFFFFFFFF2
:1000DE00FFFFFFFFFFFFFFFFFFFFFFFFFF9FFFFF82
:1000EE00FF8FFFFFFF8FFFFFFF8FFFFFFF0FFFFF52
:1000FE00FF07FFFFFF07FFFFFF07FFFFFF0FFFFFDA
:10010E00FF0FFFFFFF1FFFFFFF1FFFFFFF1FFFFF81
:10011E00FF3FFFFFFF3FFFFFFF3FFFFFFF3FFFFFE1
:10012E00FF07FCFFFF00E0FF3F0000FF1F3001FE56
:10013E000F3E07FE0F3F0FFE8F1F1BFE9F9F19FFE7
:10014E00FF8FD9FFFF87F9FFFF87F9FFFFC3F8FF86
:10015E00FFC7F8FFFFE7F8FFFF6FF8FFFFFFF8FF9D
:10016E00FFFFFCFFFFFFFFFFFFFFFFFFFFFFFFFF94
:10017E00FFFFFFFFFFFFFFFFFFFFFFFFFFFFFFFF81
:10018E00FFFFFFFFFFFFFFFFFFFFFFFFFFFFFFFF71
:10019E00FFFFFFFFFFFFFFFFFFFFFFFFFFFFFFFF61
:1001AE00FFFFFFFFFFFFFFFFFFFFEFFFFFFFCFFF91
:1001BE00FFFFCFFFFFFFC7FFFFF9C7FFFFF9C7FF25
:1001CE00FFF1C7FFFFE1E3FFFFE1E3FFFFC1E3FF45
:1001DE00FF81E3FF3F88F1FF1F0CF1FF3F1CF8FF8B
:1001EE007F3CF8FF7F38FCFFFF38FCFFFF30FCFF41
:1001FE00FF11F8FFFF01F8FFFF83F0FFFFC3F1FFD0
:10020E00FFC1F1FFFFC3F1FFFFCFE3FFFF8FE3FF5E
:10021E00FF8FE3FFFF9FC3FFFF1FC1FFFF1FC0FF45
:10022E00FF3FF0FFFF3FF8FFFF3FFCFFFF3FFCFFEC
:10023E00FF3FFEFFFF7FFFFFFFFFFFFFFFFFFFFF01
:10024E00FFFFFFFFFFFFFFFFFFFFFFFFFFFFFFFFB0
:10025E00FFFFFFFFFF1FFEFFFF1FFEFFFF1FFCFF45
:10026E00FF1FF0FFFF1FE0FFFF8FC1FFFF0F04FF17
:10027E00FF4F0CFFFF4710FCFF2722FCFF0372FC11
:10028E00FF1351F8FF01D1F8FF8890F87F0488F131
:10029E007F0084F03F0286F01F1100F08F0840F0BF
:1002AE00070020F0074000F01F0308FC3F110CFC74
:1002BE007F1E02FEFF0C01FFFF84C0FFFF44C0FF44
:1002CE00FF29E0FFFF19F8FFFF01FCFFFF03FEFF10
:1002DE00FF83FFFFFFE3FFFFFFE3FFFFFFF7FFFFDC
:1002EE00FFFFFFFFFFFFFFFFFFFFFFFFFFFFFFFF10
:1002FE00FFFFFFFFFFFFFFFFFFFFFFFFFFFFFFFF00
:10030E0000FF00FF00FF00FF00FF00FF00FF00FFE7
:10031E0000FF00FF00C0001F00DD00DF00DD00DF7A
:10032E0000DD00DF00C0001F00F700FF00F600FF39
:10033E0000F7003F00F700FD00F700FE000000018F
:10034E0000F700FF00F700FF00F700FF00FF00FFBF
:10035E0000FF00FF00FD00FE00BD00FD00DD00FB04
:10036E0000C500E700EC001F00FD00FF000100FFCC
:10037E0000FD00FF00FC000300F500FD008D00FDF8
:10038E0000DD00FD00F900FD00FD00E100FF00FFB3
:10039E0000FF00FF00BF00EF00BF00DF00BF00BF87
:1003AE0000BF007F00BE00FF00BD00FF0080000107
:1003BE00009F00FF00BD00FF00BC00FF00BE007FDD
:1003CE0000BF001F003F00BF00BF00FF00FF00FF87
:1003DE0000FD00EF00DD00EF00DD00DF00DD00DFDF
:1003EE0000DD00BF00DD00830001006D00DC00EDCC
:1003FE0000DC00DD00DD00DD00D900BD00D500BD54
:10040E00008D00FD00DD00F100FD00FF00FF00FF8C
:10041E0000FF00FF00FF007F00FF007F00FF007F56
:10042E0000FF007F00FF007F00FF007F00FF007FC6
:10043E0000FF00FF00FF007F00FF007F00FF007F36
:10044E0000FF007F00FF007F00FF007F00FF007FA6
:10045E0000FB00DF00FB00DF00BB00BD00BB00BEE9
:10046E0000800001007B007F007B007F00FB00F717
:10047E0000FB00F7000000EF00FB001F00BB00A711
:10048E0000CA007B00FB00FD00FB00F000FF00FF38
:10049E0000FE00FF00FD00FF00F0000100C700FF9E
:1004AE00003F00FF00F00001007F00FF008F00FF03
:1004BE0000DF00FF00FF00FF00DF00FF00DF00FB9A
:1004CE0000DF00FD00C0000300FF00FF00FF00FF83
:1004DE0000FF00FF00BF00EF00BF00DF00BF00BF46
:1004EE0000BF007F00BE00FF00BD00FF00800001C6
:1004FE00009F00FF00BD00FF00BC00FF00BE007F9C
:10050E0000BF001F003F00BF00BF00FF00FF00FF45
:10051E0000DB00FF00DA0000000200AF00DA00AFDF
:10052E0000DA00AD000200AE00DA000100DA00FFD2
:10053E0000F900FE000400FD00B7003300F700CF05
:10054E0000F6003300F100FC00F700FD00FF00FF95
:10055E0000FF00FF00F000FF00E0007F00C0003F42
:10056E0000C0001F00E0000F00F0000700F80003BD
:10057E0000F8000300F0000700E0000F00C0001FAD
:10058E0000C0003F00E0007F00F000FF00FF00FF12
:10059E0000FF00FF00FF00FF00FF00FF00FF00FF55
:1005AE0000FF00FF00FF00FF00FF00FF00FF00FF45
:1005BE0000FF00FF00FF00FF00FF00FF00FF00FF35
:1005CE0000FF00FF00FF00FF00FF00FF00FF00FF25
:1005DE000000FC03FE0702040204FE07FC030000F9
:1005EE00000004000400FE07FE07000000000000EB
:1005FE0000000C078E07C20462043E041C040000B7
:10060E0000000402060622042204FE07DC0300009A
:10061E0000008001E00178011C01FE07FE070000CA
:10062E0000007E027E0622042204E207C2030000BE
:10063E000000FC03FE0722042204E607C4030000A8
:10064E00000002000207E207FA001E00060000008A
:10065E000000DC03FE0722042204FE07DC03000078
:10066E0000003C027E0642044204FE07FC0300002A
:10067E000000000000000C030C030000000000004E
:10068E00000000000000000000000000000000005C
:10069E000000000C000FC003F0003C000C00000036
:1006AE0003FC07FE0402040207FE03FC0000000028
:1006BE000200020007FE07FE00000000000000001E
:1006CE00030E071E0432046207C2038200000000FC
:1006DE00020406060442044207FE03BC00000000AA
:1006EE000018007801E8038807FE07FE00000000EE
:1006FE0007E407E604420442047E043C00000000C6
:10070E0003FC07FE04420442067E023C0000000089
:10071E000400040E047E05F00780060000000000B1
:10072E0003BC07FE0442044207FE03BC00000000A7
:10073E0003C407E60422042207FE03FC00000000A7
:10074E0000200020002000200020002000000000DB
:101589007E01E4FD7C0174252EF8E6D3940E400516
:101599004307808000ECC394085004EFC313FF0E87
:1015A9000CBC09E274462DF8A607E4FF0DBD04D46E
:1015B900E549F4B5480CE547F4B54606E546700239
:0215C900D21539
:0115CB0022FD
:0300130002160CC6
:10160C00C0E0C0D075D00030162BE54BC39484508D
:10161C000AE54BC39441400375240074252524F836
:10162C00A64B754B000524E524B4210ED217752466
:0F163C0000C2168005754B00D216D0D0D0E03218
:0417710002180190C9
:0B179F00D288D28AD2A8D2AAD2AF22F0
:0300030002144C98
:10144C00C0E0C0D075D010D218054CC2A8E552240B
:10145C004CFFE55134FFFEEF25E0FFEE33FEEF25A8
:10146C0019F519EE3518F518E5192458F556E5183F
:10147C003402F555C3E49556FDE49555F58CAF153E
:10148C008F8A755100755200755A00755B00D2A891
:05149C00D0D0D0E032C9
:10075E007DFF79FF7569FF756AFF201103020A9A02
:10076E00C211E55214FCD394B44003020A6DE51D88
:10077E00700302082CBC01027DCDBC02027DB6BC0A
:10078E0003027DB6BC04027DB6BC05027DB9BCB3C6
:10079E00027D80BC2A027DF1BC2B027DEEBC2C02B8
:1007AE007DFEBC2D027DF1BC2E027DFEBC2F027D96
:1007BE00EEBC30027DF1BC58027DD9BC59027DB62B
:1007CE00BC5A027DB6BC5B027DB6BC5C027DC1BC70
:1007DE0084027DF1BC85027DEEBC86027DEFBC8776
:1007EE00027DE1BC88027DEEBC89027DEEBC8A02F0
:1007FE007DF1EC640F6023EC641E601EEC643C60C3
:10080E0019EC644B6014EC6469600FEC6478600A58
:10081E00EC64966005EC64A5702D7DFC8029EC756A
:10082E00F00384E5F0700A7DFE79FF7569FF756A45
:10083E00FFEC75F00F84E5F06008EC64B36003BC68
:10084E000105C2945305FCEC75F00384E5F0705875
:10085E00E54A75F003A4FFEC6F7002E5F06003BC8F
:10086E00B309530507E4F9F569F56AE54D75F0032B
:10087E00A4FFECB50709E4B5F005F9F569F56AE5ED
:10088E004D75F00C8475F003A4FBAAF0E55475F0D9
:10089E000FA42BFFE5F03AFEEC6F7001EE60030241
:1008AE000A4053010F020A3CEC64016003BCB30919
:1008BE005305FC7569FF756AFFE54DD39400500A28
:1008CE00E54AC394005003020982E54D75F003A476
:1008DE00146C6015E54D75F003A42401FFE435F0AA
:1008EE00FEECB5070CE4B50608530101E4F569F515
:1008FE006AE54D75F00C84FF75F003A4FEE55475A2
:10090E00F00FA42E146C6022EF75F003A4FBAAF076
:10091E00E55475F00FA42BFFE5F03ACF2401CF3448
:10092E0000FEECB5070CE4B5060853011FE4F569AB
:10093E00F56AE54D75F00C84FF75F003A4FEE554E1
:10094E0075F00FA42E24FE6C6022EF75F003A4FB4D
:10095E00AAF0E55475F00FA42BFFE5F03ACF240270
:10096E00CF3400FEECB5070CE4B5060853013FE4A6
:10097E00F569F56AE54D702BE54D75F003A4FFC3DF
:10098E0074B39F6C6015E54D75F003A42401FFE46C
:10099E0035F0FEECB5070CE4B50608530101E4F59D
:1009AE0069F56AE5546003020A40E55475F00FA438
:1009BE00F404FFE54D75F00C84FE75F003A42F24AE
:1009CE00B36C6022EE75F003A4FBAAF0E55475F04B
:1009DE000FA42BFFE5F03ACF2401CF3400FEECB587
:1009EE00070CE4B5060853011FE4F569F56AE554F2
:1009FE0075F00FA4F404FFE54D75F00C84FE75F050
:100A0E0003A42F24B26C6022EE75F003A4FBAAF0AF
:100A1E00E55475F00FA42BFFE5F03ACF2402CF3446
:100A2E0000FEECB5070CE4B5060853013FE4F5698A
:100A3E00F56A8D6E896F856972856A73E55B25E04F
:100A4E00FFE55A33FE74002FF58274003EF583E005
:100A5E00F57474012FF58274003EF583E0F575ADE3
:100A6E006FAF6E1216B9AD75AF741216E21217B3E0
:100A7E008572A0857380C294C2C5C2951217AAD280
:0C0A8E0094D29575A0FF7580FF1217BA76
:010A9A002239
:100D0C00E51A25E025E02420F582E43400F583E49F
:100D1C0093F576740193F577E51A25E025E0241E0A
:100D2C00F582E43400F583E493F570740193F57166
:100D3C0012179F12170B12164BE4F567F568E56C4A
:100D4C00AE6B7802C333CE33CED8F9FF121726AD73
:100D5C0007E568AE677802C333CE33CED8F9246882
:100D6C00F58274013EF583EDF0E56CAE6B7802C351
:100D7C0033CE33CED8F92401FFE43EFE121726AD54
:100D8C0007E568AE677802C333CE33CED8F9246951
:100D9C00F58274013EF583EDF0E56CAE6B7802C321
:100DAC0033CE33CED8F92402FFE43EFE121726AD23
:100DBC0007E568AE677802C333CE33CED8F9246A20
:100DCC00F58274013EF583EDF0E56CAE6B7802C3F1
:100DDC0033CE33CED8F92403FFE43EFE121726ADF2
:100DEC0007E568AE677802C333CE33CED8F9246BEF
:100DFC00F58274013EF583EDF0056CE56C7002052F
:100E0C006B0568E56870020567C394B4E5679400E8
:100E1C005003020D4AE4F56BF56CFDFCED25E0FF8B
:100E2C00EC33FEC374679FFF74019EFEEF25E0FF59
:100E3C00EE33FE740E2FF58274033EF5837401932A
:100E4C00FBED25E0FFEC33FE74002FF58274003EC1
:100E5C00F583EBF0C374669FFF74019EFEEF25E0F3
:100E6C00FFEE33FE740E2FF58274033EF58374018E
:100E7C0093FBED25E0FFEC33FE74012FF58274003B
:100E8C003EF583EBF00DBD00010CED64B44C708CA1
:100E9C00E4FD7C13900438E4F0A3DCFC7C007D13AF
:100EAC0012102BE51B14601D14601F240270F1E45A
:100EBC00FDFF1216B9E4FDFF1216E2E4F5A0F58071
:0F0ECC001217B380DB12075E80D6120A9B80D10B
:10102B00201703021158C217121589301572C215F9
:10103B00E548121693107D07109108108109108551
:10104B000C10A50D10A91610891810951C109D4297
:10105B0010794310754410714710A14A10995A101A
:10106B008D5E000010ABD2078036D20B8032D208D7
:10107B00802ED205802AD2038026D20A8022D20269
:10108B00801ED20E801AD2068016D2048012D2098C
:10109B00800ED20C800AD20D8006D2018002D200C3
:1010AB0030070EC207051BE51BD394024003E4F582
:1010BB001B300502C205300302C203300A15C20AF7
:1010CB000554AD547F84121776E554D3940B40032B
:1010DB00E4F55430021AC202054DE54DD3943B4062
:1010EB000FE4F54D0554E554D3940B4003E4F5544C
:1010FB00300E0EC20E054AE54AD3943B4003E4F58D
:10110B004A30060EC2060550E550D39419400375BC
:10111B00500D30040EC204054EE54ED3940B400324
:10112B00E4F54E30090EC2090553E553D3941F4025
:10113B0003E4F553300D05C20D631DFF300C0EC2D9
:0E114B000C051AE51AD394034003E4F51A22AA
:0D178500E4F5C7F5C5F5C675C380F5C422AF
:1017260075C78175C5018FC48EC375C65A75C6A5A2
:0617360000AFC21217858E
:01173C00228A
:10173D0075C78175C5028FC48EC38DC275C65A75A6
:06174D00C6A5000217858D
:1017530075C78175C5038FC48EC375C65A75C6A573
:0417630000021785E4
:100A9B00120EDB201103020D0BC211E55214F56986
:100AAB007580FF75A0FF1217BAE569D394B44003A4
:100ABB00020D0BE569C39400404FE5699420504942
:100ACB00E569131313541F243DF582E43404F583B5
:100ADB00E0FF75F010A424DEF582E5F03405F58314
:100AEB00E5695407FE75F002121687E493F4F56E70
:100AFB0075F010EFA424DFF582E5F03405F583756E
:100B0B00F002EE121687020B9CE569D39493500307
:100B1B00020BA4E56994B44003020BA4C374B39510
:100B2B0069FDE49400FCED5407FFC374079FFFE4D9
:100B3B009400FEEF25E0FBEE33FAEDAE047803CE26
:100B4B00C313CE13D8F9FFC374049FFFE49EFE7446
:100B5B00382FF58274043EF583E0FF75F010A42462
:100B6B00DEF582E5F03405F583E5822BF582E5832E
:100B7B003AF583E493F4F56E75F010EFA424DFF5EA
:100B8B0082E5F03405F583E5822BF582E5833AF5B2
:100B9B0083E493F4F56F020CB7E569D39439406E97
:100BAB00E569945A5068C374599569FFE49400FE43
:100BBB00EF7803CEC313CE13D8F9FFC3740C9FFF8A
:100BCB00E49EFE74382FF58274043EF583E0FF75C6
:100BDB00F010A424AEF582E5F03406F583C3745906
:100BEB0095695407FE75F002121687E493F4F56FBE
:100BFB0075F010EFA424AFF582E5F03406F583759C
:100C0B00F002EE121687E493F4F56E020CB7E56969
:100C1B00C3945A406DE569947A5067C374799569AA
:100C2B00FFE49400FEEF7803CEC313CE13D8F9FF85
:100C3B00C374109FFFE49EFE74382FF58274043E3C
:100C4B00F583E0FF75F010A424AEF582E5F03406D1
:100C5B00F583C3747995695407FE75F002121687F4
:100C6B00E493F4F56F75F010EFA424AFF582E5F083
:100C7B003406F58375F002EE121687E493F4F56EE5
:100C8B00802AE569C39420400FE569D39439500855
:100C9B00756EFF756FFF8014E569C3947A4013E599
:100CAB0069D39493500C756EFF756FFF7572FF755A
:100CBB0073FFE55B25E0FFE55A33FE74002FF582E9
:100CCB0074003EF583E0F57474012FF58274003ED9
:100CDB00F583E0F575C294C2C5AD6FAF6E1216B950
:100CEB00AD75AF741216E21217B38572A0857380BF
:100CFB001217AAD2C5D29475A0FF7580FF1217BA2E
:010D0B0022C5
:0F1776008D69121541AF69121547C2C1D2C22247
:1015CC00D2C3A2C392E0D2C2C2C2A2C392E1D2C21F
:1015DC00C2C2A2C392E2D2C2C2C2A2C392E3D2C21C
:1015EC00C2C2A2C392E4D2C2C2C2A2C392E5D2C208
:1015FC00C2C2A2C392E6D2C2C2C2A2C392E7FF2267
:0C179200E4FE1215411215CCC2C1D2C2F7
:01179E002228
:06154100C2C2C2C1D2C10A
:10154700EFA2E092C3D2C2C2C2A2E192C3D2C2C288
:10155700C2A2E292C3D2C2C2C2A2E392C3D2C2C2A1
:10156700C2A2E492C3D2C2C2C2A2E592C3D2C2C28D
:10157700C2A2E692C3D2C2C2C2A2E792C3D2C2C279
:02158700C2227E
:1014F400E4FD7F8E1217767DA07F841217767D130C
:101504007F8C1217767D077F8A1217767D117F886C
:101514001217767D287F861217767D107F84121726
:10152400767D237F821217767D307F801217767D39
:0D153400A57F901217767D807F8E021776BE
:10164B007F831217928F4DE54DC4540F75F00AA48A
:10165B00FFE54D540F2FF54D7F851217928F54E5F3
:10166B0054C4540F75F00AA4FFE554540F2FF554CE
:0C167B00D3940B400674F42554F554225F
:100EDB0020120302102AC2127F811217928F4AE549
:100EEB004AC4540F75F00AA4FFE54A540F2FF54A74
:100EFB0070187F831217928F4DE54DC4540F75F008
:100F0B000AA4FFE54D540F2FF54DE54D70237F855A
:100F1B001217928F54E554C4540F75F00AA4FFE5D1
:100F2B0054540F2FF554D3940B400674F42554F5F9
:100F3B00547F871217928F53E553C4540F75F00AE1
:100F4B00A4FFE553540F2FF5537F891217928F4E41
:100F5B00E54EC4540F75F00AA4FFE54E540F2FF560
:100F6B004E7F8B1217928F4FE54FC4540F75F00ABB
:100F7B00A4FFE54F540F2FF54F7F8D1217928F5013
:100F8B00E550C4540F75F00AA4FFE550540F2FF52C
:100F9B0050E55475F00A84900439F0E55475F00A65
:100FAB0084A3E5F0F0A3740AF0E54D75F00A84A371
:100FBB00F0E54D75F00A84A3E5F0F0A3740AF0E5B3
:100FCB004A75F00A84A3F0E54A75F00A84A3E5F0AC
:100FDB00F0E55075F00A84900448F0E55075F00A7E
:100FEB0084900447E5F0F0900446740AF0E54E75E2
:100FFB00F00A84900445F0E54E75F00A84900444A1
:10100B00E5F0F0900443740AF0E55375F00A849010
:10101B000442F0E55375F00A84900441E5F0F022A8
:030000000213C028
:0C13C000787FE4F6D8FD758177021407F1
:0C168700A42582F582E5F03583F583226E
:10169300D083D082F8E4937012740193700DA3A3E6
:1016A30093F8740193F5828883E4737402936860FA
:0616B300EFA3A3A380DFFA
:1013CC00020D0CE493A3F8E493A34003F68001F21E
:1013DC0008DFF48029E493A3F85407240CC8C33322
:1013EC00C4540F4420C8834004F456800146F6DFF1
:1013FC00E4800B0102040810204080901767E47E03
:10140C00019360BCA3FF543F30E509541FFEE493E5
:10141C00A360010ECF54C025E060A840B8E493A3AC
:10142C00FAE493A3F8E493A3C8C582C8CAC583CAD7
:10143C00F0A3C8C582C8CAC583CADFE9DEE780BE8F
:011775000073
:00000001FF
